{
  "_format": "hh-sol-artifact-1",
  "contractName": "ArtVault",
  "sourceName": "contracts/ArtVault.sol",
  "abi": [
    {
      "inputs": [
        {
          "internalType": "address",
          "name": "initialOwner",
          "type": "address"
        }
      ],
      "stateMutability": "nonpayable",
      "type": "constructor"
    },
    {
      "inputs": [
        {
          "internalType": "address",
          "name": "sender",
          "type": "address"
        },
        {
          "internalType": "uint256",
          "name": "tokenId",
          "type": "uint256"
        },
        {
          "internalType": "address",
          "name": "owner",
          "type": "address"
        }
      ],
      "name": "ERC721IncorrectOwner",
      "type": "error"
    },
    {
      "inputs": [
        {
          "internalType": "address",
          "name": "operator",
          "type": "address"
        },
        {
          "internalType": "uint256",
          "name": "tokenId",
          "type": "uint256"
        }
      ],
      "name": "ERC721InsufficientApproval",
      "type": "error"
    },
    {
      "inputs": [
        {
          "internalType": "address",
          "name": "approver",
          "type": "address"
        }
      ],
      "name": "ERC721InvalidApprover",
      "type": "error"
    },
    {
      "inputs": [
        {
          "internalType": "address",
          "name": "operator",
          "type": "address"
        }
      ],
      "name": "ERC721InvalidOperator",
      "type": "error"
    },
    {
      "inputs": [
        {
          "internalType": "address",
          "name": "owner",
          "type": "address"
        }
      ],
      "name": "ERC721InvalidOwner",
      "type": "error"
    },
    {
      "inputs": [
        {
          "internalType": "address",
          "name": "receiver",
          "type": "address"
        }
      ],
      "name": "ERC721InvalidReceiver",
      "type": "error"
    },
    {
      "inputs": [
        {
          "internalType": "address",
          "name": "sender",
          "type": "address"
        }
      ],
      "name": "ERC721InvalidSender",
      "type": "error"
    },
    {
      "inputs": [
        {
          "internalType": "uint256",
          "name": "tokenId",
          "type": "uint256"
        }
      ],
      "name": "ERC721NonexistentToken",
      "type": "error"
    },
    {
      "inputs": [
        {
          "internalType": "address",
          "name": "owner",
          "type": "address"
        }
      ],
      "name": "OwnableInvalidOwner",
      "type": "error"
    },
    {
      "inputs": [
        {
          "internalType": "address",
          "name": "account",
          "type": "address"
        }
      ],
      "name": "OwnableUnauthorizedAccount",
      "type": "error"
    },
    {
      "anonymous": false,
      "inputs": [
        {
          "indexed": true,
          "internalType": "address",
          "name": "owner",
          "type": "address"
        },
        {
          "indexed": true,
          "internalType": "address",
          "name": "approved",
          "type": "address"
        },
        {
          "indexed": true,
          "internalType": "uint256",
          "name": "tokenId",
          "type": "uint256"
        }
      ],
      "name": "Approval",
      "type": "event"
    },
    {
      "anonymous": false,
      "inputs": [
        {
          "indexed": true,
          "internalType": "address",
          "name": "owner",
          "type": "address"
        },
        {
          "indexed": true,
          "internalType": "address",
          "name": "operator",
          "type": "address"
        },
        {
          "indexed": false,
          "internalType": "bool",
          "name": "approved",
          "type": "bool"
        }
      ],
      "name": "ApprovalForAll",
      "type": "event"
    },
    {
      "anonymous": false,
      "inputs": [
        {
          "indexed": false,
          "internalType": "uint256",
          "name": "_fromTokenId",
          "type": "uint256"
        },
        {
          "indexed": false,
          "internalType": "uint256",
          "name": "_toTokenId",
          "type": "uint256"
        }
      ],
      "name": "BatchMetadataUpdate",
      "type": "event"
    },
    {
      "anonymous": false,
      "inputs": [
        {
          "indexed": false,
          "internalType": "uint256",
          "name": "_tokenId",
          "type": "uint256"
        }
      ],
      "name": "MetadataUpdate",
      "type": "event"
    },
    {
      "anonymous": false,
      "inputs": [
        {
          "indexed": true,
          "internalType": "uint256",
          "name": "tokenId",
          "type": "uint256"
        },
        {
          "indexed": true,
          "internalType": "address",
          "name": "minter",
          "type": "address"
        },
        {
          "indexed": false,
          "internalType": "string",
          "name": "tokenURI",
          "type": "string"
        }
      ],
      "name": "NFTMinted",
      "type": "event"
    },
    {
      "anonymous": false,
      "inputs": [
        {
          "indexed": true,
          "internalType": "address",
          "name": "from",
          "type": "address"
        },
        {
          "indexed": true,
          "internalType": "address",
          "name": "to",
          "type": "address"
        },
        {
          "indexed": true,
          "internalType": "uint256",
          "name": "tokenId",
          "type": "uint256"
        }
      ],
      "name": "NFTTransferred",
      "type": "event"
    },
    {
      "anonymous": false,
      "inputs": [
        {
          "indexed": true,
          "internalType": "address",
          "name": "previousOwner",
          "type": "address"
        },
        {
          "indexed": true,
          "internalType": "address",
          "name": "newOwner",
          "type": "address"
        }
      ],
      "name": "OwnershipTransferred",
      "type": "event"
    },
    {
      "anonymous": false,
      "inputs": [
        {
          "indexed": true,
          "internalType": "address",
          "name": "from",
          "type": "address"
        },
        {
          "indexed": true,
          "internalType": "address",
          "name": "to",
          "type": "address"
        },
        {
          "indexed": true,
          "internalType": "uint256",
          "name": "tokenId",
          "type": "uint256"
        }
      ],
      "name": "Transfer",
      "type": "event"
    },
    {
      "inputs": [
        {
          "internalType": "address",
          "name": "to",
          "type": "address"
        },
        {
          "internalType": "uint256",
          "name": "tokenId",
          "type": "uint256"
        }
      ],
      "name": "approve",
      "outputs": [],
      "stateMutability": "nonpayable",
      "type": "function"
    },
    {
      "inputs": [
        {
          "internalType": "address",
          "name": "owner",
          "type": "address"
        }
      ],
      "name": "balanceOf",
      "outputs": [
        {
          "internalType": "uint256",
          "name": "",
          "type": "uint256"
        }
      ],
      "stateMutability": "view",
      "type": "function"
    },
    {
      "inputs": [],
      "name": "getAllTokenIds",
      "outputs": [
        {
          "internalType": "uint256[]",
          "name": "",
          "type": "uint256[]"
        }
      ],
      "stateMutability": "view",
      "type": "function"
    },
    {
      "inputs": [
        {
          "internalType": "uint256",
          "name": "tokenId",
          "type": "uint256"
        }
      ],
      "name": "getApproved",
      "outputs": [
        {
          "internalType": "address",
          "name": "",
          "type": "address"
        }
      ],
      "stateMutability": "view",
      "type": "function"
    },
    {
      "inputs": [],
      "name": "getContractBalance",
      "outputs": [
        {
          "internalType": "uint256",
          "name": "",
          "type": "uint256"
        }
      ],
      "stateMutability": "view",
      "type": "function"
    },
    {
      "inputs": [
        {
          "internalType": "address",
          "name": "owner",
          "type": "address"
        }
      ],
      "name": "getTokensOfOwner",
      "outputs": [
        {
          "internalType": "uint256[]",
          "name": "",
          "type": "uint256[]"
        }
      ],
      "stateMutability": "view",
      "type": "function"
    },
    {
      "inputs": [],
      "name": "getTotalSupply",
      "outputs": [
        {
          "internalType": "uint256",
          "name": "",
          "type": "uint256"
        }
      ],
      "stateMutability": "view",
      "type": "function"
    },
    {
      "inputs": [
        {
          "internalType": "address",
          "name": "owner",
          "type": "address"
        },
        {
          "internalType": "address",
          "name": "operator",
          "type": "address"
        }
      ],
      "name": "isApprovedForAll",
      "outputs": [
        {
          "internalType": "bool",
          "name": "",
          "type": "bool"
        }
      ],
      "stateMutability": "view",
      "type": "function"
    },
    {
      "inputs": [],
      "name": "maxSupply",
      "outputs": [
        {
          "internalType": "uint256",
          "name": "",
          "type": "uint256"
        }
      ],
      "stateMutability": "view",
      "type": "function"
    },
    {
      "inputs": [
        {
          "internalType": "address",
          "name": "to",
          "type": "address"
        },
        {
          "internalType": "string",
          "name": "tokenURI",
          "type": "string"
        }
      ],
      "name": "mintNFT",
      "outputs": [
        {
          "internalType": "uint256",
          "name": "",
          "type": "uint256"
        }
      ],
      "stateMutability": "payable",
      "type": "function"
    },
    {
      "inputs": [],
      "name": "mintPrice",
      "outputs": [
        {
          "internalType": "uint256",
          "name": "",
          "type": "uint256"
        }
      ],
      "stateMutability": "view",
      "type": "function"
    },
    {
      "inputs": [],
      "name": "name",
      "outputs": [
        {
          "internalType": "string",
          "name": "",
          "type": "string"
        }
      ],
      "stateMutability": "view",
      "type": "function"
    },
    {
      "inputs": [],
      "name": "owner",
      "outputs": [
        {
          "internalType": "address",
          "name": "",
          "type": "address"
        }
      ],
      "stateMutability": "view",
      "type": "function"
    },
    {
      "inputs": [
        {
          "internalType": "uint256",
          "name": "tokenId",
          "type": "uint256"
        }
      ],
      "name": "ownerOf",
      "outputs": [
        {
          "internalType": "address",
          "name": "",
          "type": "address"
        }
      ],
      "stateMutability": "view",
      "type": "function"
    },
    {
      "inputs": [],
      "name": "renounceOwnership",
      "outputs": [],
      "stateMutability": "nonpayable",
      "type": "function"
    },
    {
      "inputs": [
        {
          "internalType": "address",
          "name": "from",
          "type": "address"
        },
        {
          "internalType": "address",
          "name": "to",
          "type": "address"
        },
        {
          "internalType": "uint256",
          "name": "tokenId",
          "type": "uint256"
        }
      ],
      "name": "safeTransferFrom",
      "outputs": [],
      "stateMutability": "nonpayable",
      "type": "function"
    },
    {
      "inputs": [
        {
          "internalType": "address",
          "name": "from",
          "type": "address"
        },
        {
          "internalType": "address",
          "name": "to",
          "type": "address"
        },
        {
          "internalType": "uint256",
          "name": "tokenId",
          "type": "uint256"
        },
        {
          "internalType": "bytes",
          "name": "data",
          "type": "bytes"
        }
      ],
      "name": "safeTransferFrom",
      "outputs": [],
      "stateMutability": "nonpayable",
      "type": "function"
    },
    {
      "inputs": [
        {
          "internalType": "address",
          "name": "operator",
          "type": "address"
        },
        {
          "internalType": "bool",
          "name": "approved",
          "type": "bool"
        }
      ],
      "name": "setApprovalForAll",
      "outputs": [],
      "stateMutability": "nonpayable",
      "type": "function"
    },
    {
      "inputs": [
        {
          "internalType": "uint256",
          "name": "newPrice",
          "type": "uint256"
        }
      ],
      "name": "setMintPrice",
      "outputs": [],
      "stateMutability": "nonpayable",
      "type": "function"
    },
    {
      "inputs": [
        {
          "internalType": "bytes4",
          "name": "interfaceId",
          "type": "bytes4"
        }
      ],
      "name": "supportsInterface",
      "outputs": [
        {
          "internalType": "bool",
          "name": "",
          "type": "bool"
        }
      ],
      "stateMutability": "view",
      "type": "function"
    },
    {
      "inputs": [],
      "name": "symbol",
      "outputs": [
        {
          "internalType": "string",
          "name": "",
          "type": "string"
        }
      ],
      "stateMutability": "view",
      "type": "function"
    },
    {
      "inputs": [
        {
          "internalType": "uint256",
          "name": "tokenId",
          "type": "uint256"
        }
      ],
      "name": "tokenURI",
      "outputs": [
        {
          "internalType": "string",
          "name": "",
          "type": "string"
        }
      ],
      "stateMutability": "view",
      "type": "function"
    },
    {
      "inputs": [
        {
          "internalType": "address",
          "name": "from",
          "type": "address"
        },
        {
          "internalType": "address",
          "name": "to",
          "type": "address"
        },
        {
          "internalType": "uint256",
          "name": "tokenId",
          "type": "uint256"
        }
      ],
      "name": "transferFrom",
      "outputs": [],
      "stateMutability": "nonpayable",
      "type": "function"
    },
    {
      "inputs": [
        {
          "internalType": "address",
          "name": "to",
          "type": "address"
        },
        {
          "internalType": "uint256",
          "name": "tokenId",
          "type": "uint256"
        }
      ],
      "name": "transferNFT",
      "outputs": [],
      "stateMutability": "nonpayable",
      "type": "function"
    },
    {
      "inputs": [
        {
          "internalType": "address",
          "name": "newOwner",
          "type": "address"
        }
      ],
      "name": "transferOwnership",
      "outputs": [],
      "stateMutability": "nonpayable",
      "type": "function"
    },
    {
      "inputs": [],
      "name": "withdraw",
      "outputs": [],
      "stateMutability": "nonpayable",
      "type": "function"
    }
  ],
  "bytecode": "0x6080604052612710600955662386f26fc10000600a553480156200002257600080fd5b5060405162001d6738038062001d6783398101604081905262000045916200013f565b8060405180604001604052806008815260200167105c9d15985d5b1d60c21b81525060405180604001604052806008815260200167105495159055531560c21b815250816000908162000099919062000216565b506001620000a8828262000216565b5050506001600160a01b038116620000da57604051631e4fbdf760e01b81526000600482015260240160405180910390fd5b620000e581620000ed565b5050620002e2565b600780546001600160a01b038381166001600160a01b0319831681179093556040519116919082907f8be0079c531659141344cd1fd0a4f28419497f9722a3daafe3b4186f6b6457e090600090a35050565b6000602082840312156200015257600080fd5b81516001600160a01b03811681146200016a57600080fd5b9392505050565b634e487b7160e01b600052604160045260246000fd5b600181811c908216806200019c57607f821691505b602082108103620001bd57634e487b7160e01b600052602260045260246000fd5b50919050565b601f8211156200021157600081815260208120601f850160051c81016020861015620001ec5750805b601f850160051c820191505b818110156200020d57828155600101620001f8565b5050505b505050565b81516001600160401b0381111562000232576200023262000171565b6200024a8162000243845462000187565b84620001c3565b602080601f831160018114620002825760008415620002695750858301515b600019600386901b1c1916600185901b1785556200020d565b600085815260208120601f198616915b82811015620002b35788860151825594840194600190910190840162000292565b5085821015620002d25787850151600019600388901b60f8161c191681555b5050505050600190811b01905550565b611a7580620002f26000396000f3fe6080604052600436106101815760003560e01c80638da5cb5b116100d1578063c4e41b221161008a578063e985e9c511610064578063e985e9c514610438578063eacabe1414610458578063f2fde38b1461046b578063f4a0a5281461048b57600080fd5b8063c4e41b22146103ed578063c87b56dd14610402578063d5abeb011461042257600080fd5b80638da5cb5b1461034557806394ab67fe1461036357806395d89b4114610383578063a22cb46514610398578063b88d4fde146103b8578063bdbed722146103d857600080fd5b806342842e0e1161013e5780636817c76c116101185780636817c76c146102d95780636f9fb98a146102fd57806370a0823114610310578063715018a61461033057600080fd5b806342842e0e1461026c5780635de6dc551461028c5780636352211e146102b957600080fd5b806301ffc9a71461018657806306fdde03146101bb578063081812fc146101dd578063095ea7b31461021557806323b872dd146102375780633ccfd60b14610257575b600080fd5b34801561019257600080fd5b506101a66101a13660046114e6565b6104ab565b60405190151581526020015b60405180910390f35b3480156101c757600080fd5b506101d06104d6565b6040516101b29190611553565b3480156101e957600080fd5b506101fd6101f8366004611566565b610568565b6040516001600160a01b0390911681526020016101b2565b34801561022157600080fd5b5061023561023036600461159b565b610591565b005b34801561024357600080fd5b506102356102523660046115c5565b6105a0565b34801561026357600080fd5b50610235610630565b34801561027857600080fd5b506102356102873660046115c5565b6106b7565b34801561029857600080fd5b506102ac6102a7366004611601565b6106d7565b6040516101b2919061161c565b3480156102c557600080fd5b506101fd6102d4366004611566565b6107a7565b3480156102e557600080fd5b506102ef600a5481565b6040519081526020016101b2565b34801561030957600080fd5b50476102ef565b34801561031c57600080fd5b506102ef61032b366004611601565b6107b2565b34801561033c57600080fd5b506102356107fa565b34801561035157600080fd5b506007546001600160a01b03166101fd565b34801561036f57600080fd5b5061023561037e36600461159b565b61080e565b34801561038f57600080fd5b506101d06108ae565b3480156103a457600080fd5b506102356103b3366004611660565b6108bd565b3480156103c457600080fd5b506102356103d3366004611728565b6108c8565b3480156103e457600080fd5b506102ac6108e0565b3480156103f957600080fd5b506008546102ef565b34801561040e57600080fd5b506101d061041d366004611566565b61096f565b34801561042e57600080fd5b506102ef60095481565b34801561044457600080fd5b506101a66104533660046117a4565b610a80565b6102ef6104663660046117d7565b610aae565b34801561047757600080fd5b50610235610486366004611601565b610c19565b34801561049757600080fd5b506102356104a6366004611566565b610c57565b60006001600160e01b03198216632483248360e11b14806104d057506104d082610c64565b92915050565b6060600080546104e590611839565b80601f016020809104026020016040519081016040528092919081815260200182805461051190611839565b801561055e5780601f106105335761010080835404028352916020019161055e565b820191906000526020600020905b81548152906001019060200180831161054157829003601f168201915b5050505050905090565b600061057382610cb4565b506000828152600460205260409020546001600160a01b03166104d0565b61059c828233610ced565b5050565b6001600160a01b0382166105cf57604051633250574960e11b8152600060048201526024015b60405180910390fd5b60006105dc838333610cfa565b9050836001600160a01b0316816001600160a01b03161461062a576040516364283d7b60e01b81526001600160a01b03808616600483015260248201849052821660448201526064016105c6565b50505050565b610638610df3565b478061067d5760405162461bcd60e51b81526020600482015260146024820152734e6f2066756e647320746f20776974686472617760601b60448201526064016105c6565b6007546040516001600160a01b039091169082156108fc029083906000818181858888f1935050505015801561059c573d6000803e3d6000fd5b6106d2838383604051806020016040528060008152506108c8565b505050565b60085460609060006106e8846107b2565b905060008167ffffffffffffffff8111156107055761070561169c565b60405190808252806020026020018201604052801561072e578160200160208202803683370190505b5090506000805b8481101561079c576000818152600260205260409020546001600160a01b0388811691160361078a578083838151811061077157610771611873565b60209081029190910101528161078681611889565b9250505b8061079481611889565b915050610735565b509095945050505050565b60006104d082610cb4565b60006001600160a01b0382166107de576040516322718ad960e21b8152600060048201526024016105c6565b506001600160a01b031660009081526003602052604090205490565b610802610df3565b61080c6000610e20565b565b33610818826107a7565b6001600160a01b0316146108675760405162461bcd60e51b8152602060048201526016602482015275165bdd48191bdb89dd081bdddb881d1a1a5cc813919560521b60448201526064016105c6565b6108723383836106b7565b60405181906001600160a01b0384169033907f209eb5082bc3bcbd509ae679a680b3bb2a11b77fea542a93e205020af76529fc90600090a45050565b6060600180546104e590611839565b61059c338383610e72565b6108d38484846105a0565b61062a3385858585610f11565b60085460609060008167ffffffffffffffff8111156109015761090161169c565b60405190808252806020026020018201604052801561092a578160200160208202803683370190505b50905060005b82811015610968578082828151811061094b5761094b611873565b60209081029190910101528061096081611889565b915050610930565b5092915050565b606061097a82610cb4565b506000828152600660205260408120805461099490611839565b80601f01602080910402602001604051908101604052809291908181526020018280546109c090611839565b8015610a0d5780601f106109e257610100808354040283529160200191610a0d565b820191906000526020600020905b8154815290600101906020018083116109f057829003601f168201915b505050505090506000610a2b60408051602081019091526000815290565b90508051600003610a3d575092915050565b815115610a6f578082604051602001610a579291906118b0565b60405160208183030381529060405292505050919050565b610a788461103c565b949350505050565b6001600160a01b03918216600090815260056020908152604080832093909416825291909152205460ff1690565b6000600a54341015610b0c5760405162461bcd60e51b815260206004820152602160248201527f496e73756666696369656e74204554482073656e7420666f72206d696e74696e6044820152606760f81b60648201526084016105c6565b60095460085410610b545760405162461bcd60e51b815260206004820152601260248201527113585e081cdd5c1c1b1e481c995858da195960721b60448201526064016105c6565b6000825111610ba55760405162461bcd60e51b815260206004820152601960248201527f546f6b656e205552492063616e6e6f7420626520656d7074790000000000000060448201526064016105c6565b600880549081906000610bb783611889565b9190505550610bc684826110b1565b610bd081846110cb565b336001600160a01b0316817f06becd955c918828f6e985541acbf49cc842c9e9bd569fffc7698e721ef1357585604051610c0a9190611553565b60405180910390a39392505050565b610c21610df3565b6001600160a01b038116610c4b57604051631e4fbdf760e01b8152600060048201526024016105c6565b610c5481610e20565b50565b610c5f610df3565b600a55565b60006001600160e01b031982166380ac58cd60e01b1480610c9557506001600160e01b03198216635b5e139f60e01b145b806104d057506301ffc9a760e01b6001600160e01b03198316146104d0565b6000818152600260205260408120546001600160a01b0316806104d057604051637e27328960e01b8152600481018490526024016105c6565b6106d2838383600161111b565b6000828152600260205260408120546001600160a01b0390811690831615610d2757610d27818486611221565b6001600160a01b03811615610d6557610d4460008560008061111b565b6001600160a01b038116600090815260036020526040902080546000190190555b6001600160a01b03851615610d94576001600160a01b0385166000908152600360205260409020805460010190555b60008481526002602052604080822080546001600160a01b0319166001600160a01b0389811691821790925591518793918516917fddf252ad1be2c89b69c2b068fc378daa952ba7f163c4a11628f55a4df523b3ef91a4949350505050565b6007546001600160a01b0316331461080c5760405163118cdaa760e01b81523360048201526024016105c6565b600780546001600160a01b038381166001600160a01b0319831681179093556040519116919082907f8be0079c531659141344cd1fd0a4f28419497f9722a3daafe3b4186f6b6457e090600090a35050565b6001600160a01b038216610ea457604051630b61174360e31b81526001600160a01b03831660048201526024016105c6565b6001600160a01b03838116600081815260056020908152604080832094871680845294825291829020805460ff191686151590811790915591519182527f17307eab39ab6107e8899845ad3d59bd9653f200f220920489ca2b5937696c31910160405180910390a3505050565b6001600160a01b0383163b1561103557604051630a85bd0160e11b81526001600160a01b0384169063150b7a0290610f539088908890879087906004016118df565b6020604051808303816000875af1925050508015610f8e575060408051601f3d908101601f19168201909252610f8b9181019061191c565b60015b610ff7573d808015610fbc576040519150601f19603f3d011682016040523d82523d6000602084013e610fc1565b606091505b508051600003610fef57604051633250574960e11b81526001600160a01b03851660048201526024016105c6565b805160208201fd5b6001600160e01b03198116630a85bd0160e11b1461103357604051633250574960e11b81526001600160a01b03851660048201526024016105c6565b505b5050505050565b606061104782610cb4565b50600061105f60408051602081019091526000815290565b9050600081511161107f57604051806020016040528060008152506110aa565b8061108984611285565b60405160200161109a9291906118b0565b6040516020818303038152906040525b9392505050565b61059c828260405180602001604052806000815250611318565b60008281526006602052604090206110e3828261197f565b506040518281527ff8e1a15aba9398e019f0b49df1a4fde98ee17ae345cb5f6b5e2c27f5033e8ce79060200160405180910390a15050565b808061112f57506001600160a01b03821615155b156111f157600061113f84610cb4565b90506001600160a01b0383161580159061116b5750826001600160a01b0316816001600160a01b031614155b801561117e575061117c8184610a80565b155b156111a75760405163a9fbf51f60e01b81526001600160a01b03841660048201526024016105c6565b81156111ef5783856001600160a01b0316826001600160a01b03167f8c5be1e5ebec7d5bd14f71427d1e84f3dd0314c0f7b2291e5b200ac8c7c3b92560405160405180910390a45b505b5050600090815260046020526040902080546001600160a01b0319166001600160a01b0392909216919091179055565b61122c838383611330565b6106d2576001600160a01b03831661125a57604051637e27328960e01b8152600481018290526024016105c6565b60405163177e802f60e01b81526001600160a01b0383166004820152602481018290526044016105c6565b6060600061129283611393565b600101905060008167ffffffffffffffff8111156112b2576112b261169c565b6040519080825280601f01601f1916602001820160405280156112dc576020820181803683370190505b5090508181016020015b600019016f181899199a1a9b1b9c1cb0b131b232b360811b600a86061a8153600a85049450846112e657509392505050565b611322838361146b565b6106d2336000858585610f11565b60006001600160a01b03831615801590610a785750826001600160a01b0316846001600160a01b0316148061136a575061136a8484610a80565b80610a785750506000908152600460205260409020546001600160a01b03908116911614919050565b60008072184f03e93ff9f4daa797ed6e38ed64bf6a1f0160401b83106113d25772184f03e93ff9f4daa797ed6e38ed64bf6a1f0160401b830492506040015b6d04ee2d6d415b85acef810000000083106113fe576d04ee2d6d415b85acef8100000000830492506020015b662386f26fc10000831061141c57662386f26fc10000830492506010015b6305f5e1008310611434576305f5e100830492506008015b612710831061144857612710830492506004015b6064831061145a576064830492506002015b600a83106104d05760010192915050565b6001600160a01b03821661149557604051633250574960e11b8152600060048201526024016105c6565b60006114a383836000610cfa565b90506001600160a01b038116156106d2576040516339e3563760e11b8152600060048201526024016105c6565b6001600160e01b031981168114610c5457600080fd5b6000602082840312156114f857600080fd5b81356110aa816114d0565b60005b8381101561151e578181015183820152602001611506565b50506000910152565b6000815180845261153f816020860160208601611503565b601f01601f19169290920160200192915050565b6020815260006110aa6020830184611527565b60006020828403121561157857600080fd5b5035919050565b80356001600160a01b038116811461159657600080fd5b919050565b600080604083850312156115ae57600080fd5b6115b78361157f565b946020939093013593505050565b6000806000606084860312156115da57600080fd5b6115e38461157f565b92506115f16020850161157f565b9150604084013590509250925092565b60006020828403121561161357600080fd5b6110aa8261157f565b6020808252825182820181905260009190848201906040850190845b8181101561165457835183529284019291840191600101611638565b50909695505050505050565b6000806040838503121561167357600080fd5b61167c8361157f565b91506020830135801515811461169157600080fd5b809150509250929050565b634e487b7160e01b600052604160045260246000fd5b600067ffffffffffffffff808411156116cd576116cd61169c565b604051601f8501601f19908116603f011681019082821181831017156116f5576116f561169c565b8160405280935085815286868601111561170e57600080fd5b858560208301376000602087830101525050509392505050565b6000806000806080858703121561173e57600080fd5b6117478561157f565b93506117556020860161157f565b925060408501359150606085013567ffffffffffffffff81111561177857600080fd5b8501601f8101871361178957600080fd5b611798878235602084016116b2565b91505092959194509250565b600080604083850312156117b757600080fd5b6117c08361157f565b91506117ce6020840161157f565b90509250929050565b600080604083850312156117ea57600080fd5b6117f38361157f565b9150602083013567ffffffffffffffff81111561180f57600080fd5b8301601f8101851361182057600080fd5b61182f858235602084016116b2565b9150509250929050565b600181811c9082168061184d57607f821691505b60208210810361186d57634e487b7160e01b600052602260045260246000fd5b50919050565b634e487b7160e01b600052603260045260246000fd5b6000600182016118a957634e487b7160e01b600052601160045260246000fd5b5060010190565b600083516118c2818460208801611503565b8351908301906118d6818360208801611503565b01949350505050565b6001600160a01b038581168252841660208201526040810183905260806060820181905260009061191290830184611527565b9695505050505050565b60006020828403121561192e57600080fd5b81516110aa816114d0565b601f8211156106d257600081815260208120601f850160051c810160208610156119605750805b601f850160051c820191505b818110156110335782815560010161196c565b815167ffffffffffffffff8111156119995761199961169c565b6119ad816119a78454611839565b84611939565b602080601f8311600181146119e257600084156119ca5750858301515b600019600386901b1c1916600185901b178555611033565b600085815260208120601f198616915b82811015611a11578886015182559484019460019091019084016119f2565b5085821015611a2f5787850151600019600388901b60f8161c191681555b5050505050600190811b0190555056fea26469706673582212200d90e478951c049b95918d02a413644e21daaa23b7513b530b3b355ca0c0638664736f6c63430008140033",
  "linkReferences": {},
  "deployedLinkReferences": {}
}